:020000040800F2
:100000000000022005E2000885D9000887D9000811
:1000100089D900088BD900088DD90008000000009C
:100020000000000000000000000000008FD9000860
:1000300091D900080000000093D9000895D9000864
:1000400055E200089DD9000855E2000855E2000875
:10005000A5D90008ADD90008AFD9000855E20008BD
:1000600055E2000855E2000855E20008B9D9000839
:10007000C9D90008D9D90008E9D90008F9D9000878
:1000800009DA000819DA000855E2000855E200080C
:1000900055E2000855E2000855E2000855E2000864
:1000A00029DA000839DA000849DA000859DA0008C4
:1000B00055E2000855E2000855E2000869DA000838
:1000C00079DA000889DA000899DA0008A9DA000864
:1000D000B9DA0008C9DA000855E2000855E200085C
:1000E00055E2000855E2000800000000D9DA0008D7
:1000F000E9DA0008F9DA000809DB000819DB000872
:1001000055E2000829DB000855E2000839DB000849
:1001100055E2000855E2000855E2000855E20008E3
:1001200049DB000859DB000855E2000855E20008E9
:1001300069DB000855E2000855E2000855E20008B6
:1001400000000000000000000000000000000000AF
:1001500055E2000855E2000855E2000855E20008A3
:1001600055E2000855E2000879DB000889DB000849
:1001700055E2000899DB000855E200080000000085
:1001800055E20008A9DB000855E2000855E2000826
:10019000ADDB000855E20008BDDB0008CDDB000840
:1001A00055E2000855E2000855E20008E5DB0008CA
:1001B00055E2000855E2000855E2000855E2000843
:1001C00055E2000855E2000855E2000855E2000833
:1001D00055E2000855E2000855E2000855E2000823
:1001E00055E2000855E2000855E2000855E2000813
:1001F00055E2000855E2000855E2000855E2000803
:1002000055E2000855E20008FDDB000855E2000851
:1002100055E2000855E2000855E2000855E20008E2
:1002200055E2000855E2000855E200080000000011
:1002300055E2000815DC00080000000055E2000847
:1002400055E2000855E2000855E2000855E20008B2
:1002500055E2000855E2000855E2000855E20008A2
:1002600055E2000855E2000855E2000855E2000892
:1002700055E2000855E2000855E2000800000000C1
:1002800055E2000855E200081DDC000800000000EF
:080290000000000055E2000827
:1002A00010B5054C237833B9044B13B10448AFF3B0
:1002B00000800123237010BD6002002000000000B8
:1002C000BCF0000808B5034B1BB103490348AFF36A
:1002D000008008BD0000000064020020BCF000089F
:1002E00001F0FF01102A2BDB10F0070F08D010F8E7
:1002F000013B013A8B422DD010F0070F42B3F6D1EB
:10030000F0B441EA012141EA014122F007047FF003
:1003100000070023F0E80256083C85EA010586EA5A
:10032000010685FA47F5A3FA87F586FA47F6A5FA96
:1003300087F68EB9EED1F0BC01F0FF0102F00702A2
:1003400032B110F8013B013A83EA010313B1F8D14D
:100350000020704701387047002D06BF354603382E
:10036000073815F0010F07D1013015F4807F02BF67
:10037000013015F4C03F0130F0BC0138704700BFB8
:1003800053B94AB9002908BF00281CBF4FF0FF31FC
:100390004FF0FF3000F072B9ADF1080C6DE904CEFA
:1003A00000F006F8DDF804E0DDE9022304B0704750
:1003B0002DE9F047089E04468846002B4BD18A421F
:1003C000154667D9B2FA82F24AB1C2F1200701FAA2
:1003D00002F320FA07F7954047EA030894404FEAF2
:1003E000154E230CB8FBFEF71FFA85FC0EFB178891
:1003F00043EA084307FB0CF1994209D9EB1807F1CE
:10040000FF3080F01B81994240F21881023F2B445B
:100410005B1AA4B2B3FBFEF00EFB103344EA0344B4
:1004200000FB0CFCA44509D92C1900F1FF3380F026
:100430000781A44540F2048102382C4440EA074079
:10044000A4EB0C0400271EB1D4400023C6E90043EE
:100450003946BDE8F0878B4209D9002E00F0EB80C9
:100460000027C6E9000138463946BDE8F087B3FAEF
:1004700083F7002F47D18B4202D3824200F2FA80E9
:10048000841A61EB030301209846002EE0D0C6E9F0
:100490000048DDE702B9FFDEB2FA82F2002A40F03E
:1004A0008F80491B4FEA154E1FFA85F80127B1FBD3
:1004B000FEFC230C0EFB1C1143EA014308FB0CF16C
:1004C000994207D9EB180CF1FF3002D2994200F2A1
:1004D000CD808446591AA3B2B1FBFEF00EFB101476
:1004E00043EA044408FB00F8A04507D92C1900F1A1
:1004F000FF3302D2A04500F2B6801846A4EB0804F0
:1005000040EA0C409FE7C7F1200CBB4022FA0CFEEA
:100510004EEA030E01FA07F420FA0CF521FA0CF367
:100520004FEA1E482543B3FBF8F92C0C08FB19339E
:100530001FFA8EFA44EA034309FB0AF49C4202FACA
:1005400007F200FA07F10BD91EEB030309F1FF30A4
:1005500080F087809C4240F28480A9F102097344B4
:100560001B1BADB2B3FBF8F008FB103345EA0344A4
:1005700000FB0AFAA24508D91EEB040400F1FF3380
:100580006BD2A24569D90238744440EA0940A0FB05
:100590000289A4EB0A044C45C2464B4654D351D0C1
:1005A000002E69D0B1EB0A0564EB030404FA0CFCDD
:1005B000FD40FC404CEA0505C6E90054002747E72A
:1005C000C2F1200320FA03F7954001FA02F021FA64
:1005D00003F34FEA154E3843010CB3FBFEF71FFA45
:1005E00085F80EFB173341EA034107FB08F38B4202
:1005F00004FA02F407D9691807F1FF3C2FD28B42A5
:100600002DD9023F2944CB1A81B2B3FBFEF00EFB79
:10061000103341EA034100FB08F38B4207D9691804
:1006200000F1FF3C17D28B4215D902382944C91A70
:1006300040EA07473BE73746304609E70746E7E623
:100640001846FBE64145ABD2B8EB020A69EB0E0255
:1006500001381346A4E76046E9E7184695E7674680
:10066000D1E781467CE702382C4447E7ACF1020C25
:100670002B442FE7384608E73746E9E6704700BFC6
:10068000104B1B780BB90120704710B504464FF48E
:100690007A70B0FBF3F30C4A1068B0FBF3F000F093
:1006A000C1F868B90F2C01D901200AE000222146C7
:1006B0004FF0FF3000F076F8024B5C60002000E065
:1006C000012010BD000000209001002010B5032083
:1006D00000F056F803F0C0FC0F498B69C3F3032305
:1006E0000E4AD35C03F01F03D8408B6903F00F035D
:1006F000D35C03F01F0320FA03F3094A1360094B8C
:1007000018600020FFF7BCFF10B10124204610BD87
:1007100004460CF097FAF9E700440258CCF20008BE
:100720009401002090010020034B1B78034A1168BC
:100730000B441360704700BF0000002044030020FA
:10074000014B1868704700BF4403002038B50446C9
:10075000FFF7F6FF0546B4F1FF3F02D0044B1B78CC
:100760001C44FFF7EDFF401BA042FAD338BD00BF89
:1007700000000020014B1868000C70470010005C5E
:100780000649CB6823F4E0631B041B0C000200F451
:10079000E0600343024A1A43CA60704700ED00E07C
:1007A0000000FA0530B4154BDB68C3F30223C3F134
:1007B0000704042C28BF04241D1D062D14D9033B57
:1007C0004FF0FF3505FA04F421EA0401994005FAD7
:1007D00003F322EA03031943002807DB0901C9B226
:1007E000074B195430BC70470023E9E700F00F00B5
:1007F0000901C9B2034B1954F4E700BF00ED00E052
:1008000000E400E014ED00E0002807DB00F01F0228
:10081000400901239340024A42F82030704700BF4C
:1008200000E100E00138B0F1807F0AD2064B586049
:10083000064AF02182F823100020986007221A60EF
:1008400070470120704700BF10E000E000ED00E0BD
:10085000F0B4876D0468654E654DAC4218BFB44274
:1008600042D01835AC423FD01835AC423CD0183598
:10087000AC4239D01835AC4236D01835AC4233D002
:100880001835AC4230D005F55675AC422CD0183531
:10089000AC4229D01835AC4226D01835AC4223D012
:1008A0001835AC4220D01835AC421DD01835AC42BA
:1008B0001AD01835AC4217D04E4DAC4214D0143576
:1008C000AC4211D01435AC420ED01435AC420BD032
:1008D0001435AC4208D01435AC4205D01435AC42C6
:1008E00002D01435AC4207D1446E856E6560C46E8B
:1008F00014B1046F456F656004683C4E3C4DAC42DA
:1009000018BFB44252D01835AC424FD01835AC4263
:100910004CD01835AC4249D01835AC4246D01835C9
:10092000AC4243D01835AC4240D005F55675AC42C8
:100930003CD01835AC4239D01835AC4236D01835D9
:10094000AC4233D01835AC4230D01835AC422DD043
:100950001835AC422AD01835AC4227D0254E264D4A
:10096000AC4218BFB44211D0244DAC420ED0143565
:10097000AC420BD01435AC4208D01435AC4205D093
:100980001435AC4202D01435AC4223D1C46D04F00E
:100990001F050124AC407C60046863608368402BC1
:1009A0001FD0036899600368DA6013E0C46D04F037
:1009B0001F053F24AC40BC6005682C6824F48024EB
:1009C0002C60046863608368402B05D003689960DD
:1009D0000368DA60F0BC704703689A600368D96006
:1009E000F8E703689A600368D960F3E710000240F3
:1009F00028000240085402581C540258305402582F
:100A000002682849284B9A4218BF8A422FD01833CF
:100A10009A422CD018339A4229D018339A4226D0C1
:100A200018339A4223D018339A4220D018339A426E
:100A30001DD003F556739A4219D018339A4216D036
:100A400018339A4213D018339A4210D018339A426E
:100A50000DD018339A420AD018339A4207D018336F
:100A60009A4204D022F0FF028265806D704710B474
:100A7000D3B2103B0D49A1FB03131B0903F007017F
:100A80000B4C615CC165032B06D80A4B1340836590
:100A9000806D5DF8044B7047064B1340043383654B
:100AA000F6E700BF1000024028000240ABAAAAAA45
:100AB000D4F0000800FCFFFF83699BB9836A012B17
:100AC0000AD01BB1022B01D000207047C36A13F07B
:100AD000807F2ED100207047C36AB3F1C07F2AD037
:100AE00000207047B3F5005F06D0836A022B2AD935
:100AF000032B16D000207047836A032B03D8DFE84E
:100B000003F01C041C0A00207047C36A13F0807FA6
:100B100015D100207047C36AB3F1C07F11D0002007
:100B20007047C36A13F0807F01D001207047002016
:100B30007047012070470120704701207047012055
:100B40007047012070470120704700000368224968
:100B5000224A934218BF8B4228D01432934225D0A8
:100B60001432934222D0143293421FD01432934253
:100B70001CD01432934219D01432934216D0DAB2F8
:100B8000103A1749A1FB0212120916491944A82963
:100B90001FD9154B13449B000366144B436602F0A8
:100BA0001F02012303FA02F282667047DBB2083BA0
:100BB0000F4AA2FB03231B090E4A1A449200026645
:100BC0000D4A426603F01F03012202FA03F3836613
:100BD00070470832DDE700BF085402581C54025821
:100BE000ABAAAAAAF0FBFDBF008200108008024059
:100BF000CDCCCCCC009600168058025801794A1E04
:100C0000072A2CD830B40368154D164CA34218BFE0
:100C1000AB4218D01434A34215D01434A34212D0DE
:100C20001434A3420FD01434A3420CD01434A34282
:100C300009D01434A34206D00B4B0B449B00C3666F
:100C40000A4B036705E00A4B0B449B00C366094B44
:100C50000367012303FA02F2426730BC7047704712
:100C6000085402581C5402583F82001040090240A8
:100C70003F9600164059025870B50446FFF760FDD4
:100C8000002C00F0BD8105462368B749B74A93425E
:100C900018BF8B420CBF0122002250D030318B4252
:100CA0004DD018318B424AD018318B4247D0183181
:100CB0008B4244D018318B4241D018318B423ED008
:100CC00001F556718B423AD018318B4237D018312A
:100CD0008B4234D018318B4231D018318B422ED018
:100CE00018318B422BD018318B4228D018318B42CF
:100CF00025D09F499F4A934218BF8B4200F0248120
:100D00009D4A934200F020811432934200F01C81EE
:100D10001432934200F018811432934200F014818F
:100D20001432934200F010811432934200F00C818F
:100D300040236365032384F8353001204AE0002115
:100D400084F83410022184F835107ABB8B4A934220
:100D50002CD01832934229D01832934226D0183220
:100D6000934223D01832934220D0183293421DD0A0
:100D700002F55672934219D01832934216D01832A7
:100D8000934213D01832934210D0183293420DD0B0
:100D9000183293420AD01832934207D01832934245
:100DA00004D01A6822F001021A6003E01A6822F0E7
:100DB00001021A6023681A6812F0010F0BD0FFF7C6
:100DC000BFFC401B0528F5D920236365032384F865
:100DD0003530012070BD1A6869481040A168E2688A
:100DE0000A4321690A4361690A43A1690A43E16927
:100DF0000A43216A0A430243616A042900F0998088
:100E00006049086860490140B1F1005F11D3616831
:100E1000A1F12905A1F13F00032888BF052D06D9BE
:100E2000A1F14700012802D94F39032901D842F422
:100E300080121A602668756925F00705636A1D43EC
:100E4000042B08D1A36A1D43E36A23B12046FFF7B0
:100E500033FE002872D175612046FFF7D1FDE36DA6
:100E600003F01F023F239340836023683E493F4ABB
:100E7000934218BF8B4242D0183293423FD018326F
:100E800093423CD01832934239D01832934236D034
:100E90001832934233D01832934230D002F5567252
:100EA00093422CD01832934229D01832934226D044
:100EB0001832934223D01832934220D018329342F2
:100EC0001DD0183293421AD01832934217D0284AB4
:100ED000934214D01432934211D0143293420ED064
:100EE000143293420BD01432934208D014329342FE
:100EF00005D01432934202D01432934213D12046CB
:100F0000FFF724FEA368802B6DD0236E22791A6030
:100F1000636EA26E5A606368013B072B66D900239B
:100F2000E3662367636700206065012384F835303A
:100F300050E7E16A206B01430A4361E740236365A0
:100F4000012084F8350045E7002284F8342002228D
:100F500084F835201A680D491140A268402A1AD039
:100F6000802A15D0002217E010000240280002401D
:100F7000085402581C540258305402584000024091
:100F80003F8010FE0010005C0000FFFF0F00FEFF1E
:100F90004FF4804200E01022E06842EAD00220696B
:100FA00042EAD002606942EAD002A06942EAD00275
:100FB000E06942EAD002206A42EA10120A431A604B
:100FC0002268104B1344104AA2FB03231B099B0009
:100FD000E3652046FFF714FDE36D03F01F020123D4
:100FE0009340436041E7002363608EE72046FFF7AC
:100FF00005FEE36E00221A60236F626F5A6092E76B
:101000000120E7E6F8ABFDA7CDCCCCCC002800F062
:101010003E8170B5044690F83400012800F0398113
:10102000012084F8340094F83500C0B2012807D0BC
:10103000002384F834304FF400636365012070BDF1
:10104000022084F83500002060652068924E934DA0
:10105000A84218BFB0422FD01835A8422CD018355E
:10106000A84229D01835A84226D01835A84223D046
:101070001835A84220D01835A8421DD005F5567560
:10108000A84219D01835A84216D01835A84213D056
:101090001835A84210D01835A8420DD01835A842EE
:1010A0000AD01835A84207D01835A84204D00568E0
:1010B00025F00105056003E0056825F001050560E0
:1010C0002046FFF7C5FB23687349744A934218BF53
:1010D0008B4238D01832934235D01832934232D0F6
:1010E000183293422FD0183293422CD018329342A8
:1010F00029D01832934226D002F55672934222D05C
:10110000183293421FD0183293421CD018329342A7
:1011100019D01832934216D01832934213D0183295
:10112000934210D0183293420DD01A6822F00E026A
:1011300042F00A021A60236C93B12268136843F0EC
:10114000040313600CE01A6822F01E0242F016023B
:101150001A60236C23B12268136843F008031360FC
:1011600023684D494D4A934218BF8B4242D01832F2
:1011700093423FD0183293423CD01832934239D038
:101180001832934236D01832934233D018329342F9
:1011900030D002F5567293422CD01832934229D0A7
:1011A0001832934226D01832934223D018329342F9
:1011B00020D0183293421DD0183293421AD01832E0
:1011C000934217D0364A934214D01432934211D02E
:1011D000143293420ED0143293420BD01432934205
:1011E00008D01432934205D01432934202D0143204
:1011F00093420ED1236E1A6812F4803F03D01A680E
:1012000042F480721A60E36E1BB11A6842F4807275
:101210001A6023682049214A934218BF8B4230D07C
:10122000183293422DD0183293422AD0183293426A
:1012300027D01832934224D01832934221D018324A
:1012400093421ED002F5567293421AD0183293423E
:1012500017D01832934214D01832934211D018325A
:1012600093420ED0183293420BD01832934208D0DA
:101270001832934205D01A6842F001021A60002029
:10128000DDE61A6842F001021A600020D7E601206C
:1012900070470220D3E600BF100002402800024041
:1012A0000854025870B50446FFF74AFA002C00F0C3
:1012B0009181054694F83530DBB2022B06D08023AD
:1012C0006365002384F83430012070BD23688C49A5
:1012D0008C4A934218BF8B4230D0183293422DD0A3
:1012E000183293422AD01832934227D018329342B0
:1012F00024D01832934221D0183293421ED002F5E6
:10130000567293421AD01832934217D01832934231
:1013100014D01832934211D0183293420ED01832A2
:1013200093420BD01832934208D01832934205D022
:101330001A6822F00E021A60266809E01A6822F084
:101340001E021A602268536923F0800353612668E5
:1013500023686B496B4A934218BF8B4242D01832C4
:1013600093423FD0183293423CD01832934239D046
:101370001832934236D01832934233D01832934207
:1013800030D002F5567293422CD01832934229D0B5
:101390001832934226D01832934223D01832934207
:1013A00020D0183293421DD0183293421AD01832EE
:1013B000934217D0544A934214D01432934211D01E
:1013C000143293420ED0143293420BD01432934213
:1013D00008D01432934205D01432934202D0143212
:1013E000934204D1226E136823F480731360236840
:1013F0004349444A934218BF8B422FD0183293423C
:101400002CD01832934229D01832934226D0183269
:10141000934223D01832934220D0183293421DD0E9
:1014200002F55672934219D01832934216D01832F0
:10143000934213D01832934210D0183293420DD0F9
:10144000183293420AD01832934207D0183293428E
:1014500004D01A6822F001021A6003E01A6822F030
:1014600001021A60336813F0010F0ED0FFF768F91C
:10147000401B0528F6D920236365002384F8343007
:10148000032384F8353001201FE723681C491D4AD7
:10149000934218BF8B4239D01832934236D018325B
:1014A000934233D01832934230D0183293422DD029
:1014B000183293422AD01832934227D002F556723E
:1014C000934223D01832934220D0183293421DD039
:1014D000183293421AD01832934217D018329342DE
:1014E00014D01832934211D0183293420ED0A16D0D
:1014F000E36D03F01F02012393404B600DE000BF3A
:10150000100002402800024008540258A16DE36D0B
:1015100003F01F023F2393408B6023682E492F4A1C
:10152000934218BF8B4242D0183293423FD01832B8
:1015300093423CD01832934239D01832934236D07D
:101540001832934233D01832934230D002F556729B
:1015500093422CD01832934229D01832934226D08D
:101560001832934223D01832934220D0183293423B
:101570001DD0183293421AD01832934217D0184A0D
:10158000934214D01432934211D0143293420ED0AD
:10159000143293420BD01432934208D01432934247
:1015A00005D01432934202D0143293420BD1636EB1
:1015B000A26E5A60E36E33B11A6822F480721A6028
:1015C000236F626F5A60002084F83400012384F88E
:1015D00035307AE6012078E610000240280002400B
:1015E00008540258002800F03A8108B5024690F8E5
:1015F0003530DBB2022B03D080234365012008BDC8
:101600000368994899498B4218BF83420CBF012156
:10161000002100F0E4803030834200F0E080183098
:10162000834200F0DC801830834200F0D88018300C
:10163000834200F0D4801830834200F0D08018300C
:10164000834200F0CC8000F55670834200F0C780E2
:101650001830834200F0C3801830834200F0BF800E
:101660001830834200F0BB801830834200F0B7800E
:101670001830834200F0B3801830834200F0AF800E
:101680001830834200F0AB80196821F00E01196018
:101690001368A0F5956075498B4218BF83422BD023
:1016A00073498B4228D018318B4225D018318B4298
:1016B00022D018318B421FD018318B421CD01831E8
:1016C0008B4219D001F556718B4215D018318B42DF
:1016D00012D018318B420FD018318B420CD01831F8
:1016E0008B4209D018318B4206D018318B4203D07F
:1016F00018318B4240F0AE80196821F00101196069
:101700001368594859498B4218BF834242D0183157
:101710008B423FD018318B423CD018318B4239D0AC
:1017200018318B4236D018318B4233D018318B426E
:1017300030D001F556718B422CD018318B4229D014
:1017400018318B4226D018318B4223D018318B426E
:1017500020D018318B421DD018318B421AD018314D
:101760008B4217D043498B4214D014318B4211D095
:1017700014318B420ED014318B420BD014318B427A
:1017800008D014318B4205D014318B4202D0143171
:101790008B4217D1116E0B6823F480730B60906D30
:1017A000D36D03F01F0101238B404360536E916E94
:1017B0005960D36E33B1196821F480711960136FC9
:1017C000516F5960002382F83430012382F835309C
:1017D000136D002B45D01046984700200FE70420DA
:1017E00082F8350081BB224A93422DD018329342B1
:1017F0002AD01832934227D01832934224D018327C
:10180000934221D0183293421ED002F55672934271
:101810001AD01832934217D01832934214D018328B
:10182000934211D0183293420ED0183293420BD00B
:101830001832934208D01832934205D01A6822F029
:1018400001021A600020DAE61A6822F001021A602A
:101850000020D4E6196821F00101196050E7012049
:1018600070470020CBE600BF100002402800024075
:101870004000024008540258F0B583B004460023EB
:101880000193A24B1D68A24BA3FB0535AD0A876DE2
:101890003E68D7F800C003689E499F48834218BF3E
:1018A0008B420CBF0120002061D09C4A93425ED045
:1018B000183293425BD01832934258D01832934278
:1018C00055D01832934252D0183293424FD002F57D
:1018D000567293424BD01832934248D018329342FA
:1018E00045D01832934242D0183293423FD018323A
:1018F00093423CD01832934239D01832934236D0BA
:101900008749884A934218BF8B4212D0864A934235
:101910000FD0143293420CD01432934209D01432B7
:10192000934206D01432934203D01432934240F0D3
:1019300062821A68E16D01F01F010420884010EAFC
:101940000C0F00F0A88212F0040F00F0A48278605F
:1019500012F4004F00F05B8212F4803F40F051829D
:10196000A36C002B00F047822046984743E2E26DCB
:1019700002F01F0108228A40324241D070BB674A00
:1019800093422BD01832934228D01832934225D05C
:101990001832934222D0183293421FD01832934209
:1019A0001CD002F55672934218D01832934215D0CB
:1019B0001832934212D0183293420FD01832934209
:1019C0000CD01832934209D01832934206D0183204
:1019D000934203D01A68C2F3C00202E01A68C2F34D
:1019E00080026AB11A6822F004021A60E36D03F003
:1019F0001F0208239340BB60636D43F001036365DE
:101A0000E26D02F01F0226FA02F313F0010F37D045
:101A10002368404840498B4218BF83422CD018317C
:101A20008B4229D018318B4226D018318B4223D0DB
:101A300018318B4220D018318B421DD018318B4287
:101A40001AD001F556718B4216D018318B4213D043
:101A500018318B4210D018318B420DD018318B4287
:101A60000AD018318B4207D018318B4204D018317C
:101A70008B4201D01B6803E05B6913F0800F3BD100
:101A8000E36D03F01F03042202FA03F3334251D043
:101A90002268204820498A4218BF824246D0183125
:101AA0008A4243D018318A4240D018318A423DD010
:101AB00018318A423AD018318A4237D018318A42D6
:101AC00034D001F556718A4230D018318A422DD077
:101AD00018318A422AD018318A4227D018318A42D6
:101AE00024D018318A4221D018318A421ED01831B0
:101AF0008A421BD013681DE0012303FA02F2BA6088
:101B0000636D43F002036365BAE700BF90010020F4
:101B1000B5814E1B100002402800024040000240E8
:101B2000085402581C54025830540258126812F0DB
:101B3000020F3DD1E36D03F01F03102202FA03F3FD
:101B400033425FD022689B489B498A4218BF824239
:101B500034D018318A4231D018318A422ED018310F
:101B60008A422BD018318A4228D018318A4225D097
:101B700018318A4222D001F556718A421ED018319E
:101B80008A421BD018318A4218D018318A4215D0A7
:101B900018318A4212D018318A420FD018318A4245
:101BA0000CD018318A4209D01268C2F3800208E0D2
:101BB000BB60636D43F004036365BBE71268C2F367
:101BC000C002FAB1BB6023681A6812F4802F0DD0EE
:101BD0001B6813F4002F04D1236C9BB12046984757
:101BE00010E0A36C73B1204698470BE01A6812F41A
:101BF000807F03D11A6822F008021A60236C0BB1AF
:101C000020469847E36D03F01F03202202FA03F3F6
:101C1000334200F08E802268664867498A4218BFC6
:101C200082422ED018318A422BD018318A4228D0D5
:101C300018318A4225D018318A4222D018318A427E
:101C40001FD018318A421CD001F556718A4218D033
:101C500018318A4215D018318A4212D018318A427E
:101C60000FD018318A420CD018318A4209D018316D
:101C70008A4206D018318A4203D01268C2F3400269
:101C800002E01268C2F30012002A52D0BB6094F83E
:101C90003530DBB2042B0ED023681A6812F4802F83
:101CA00035D01B6813F4002F2CD1636C002B40D06F
:101CB000204698473DE02268136823F0160313601E
:101CC0002268536923F080035361236CB3B1226807
:101CD000136823F008031360E36D03F01F023F2332
:101CE0009340BB60002384F83430012384F83530FE
:101CF000236D002B7FD0204698477CE0A36C002BFF
:101D0000E5D1E9E7E36BA3B12046984711E01A68F3
:101D100012F4807F09D11A6822F010021A600023A1
:101D200084F83430012384F83530E36B0BB120465E
:101D30009847636D002B5ED0636D13F0010F56D092
:101D4000042384F8353023681A491B4A934218BF8C
:101D50008B4233D01832934230D0183293422DD078
:101D6000183293422AD01832934227D01832934225
:101D700024D01832934221D002F5567293421DD0DE
:101D8000183293421AD01832934217D01832934225
:101D900014D01832934211D0183293420ED0183218
:101DA00093420BD01832934208D01A6822F00102F5
:101DB0001A6007E010000240280002401A6822F072
:101DC00001021A60019B01330193AB4204D82368DE
:101DD0001B6813F0010FF5D1002384F83430236819
:101DE0001B6813F0010F08D0032384F83530E36C2F
:101DF0000BB12046984703B0F0BD012384F835307D
:101E0000F5E7236C002BF6D020469847F3E712F055
:101E1000200F35D123686449644A934218BF8B422E
:101E20002AD01832934227D01832934224D0183245
:101E3000934221D0183293421ED0183293421BD0C5
:101E40001832934218D002F55672934214D01832C9
:101E5000934211D0183293420ED0183293420BD0D5
:101E60001832934208D01832934205D01832934268
:101E700002D01832934209D11A6822F008021A607F
:101E8000236C002BB7D020469847B4E71A6822F09D
:101E900004021A60F4E70220884010EA0C0F60D0B8
:101EA00012F0020F5DD0786012F4004F0ED012F4E1
:101EB000803F05D1636C002B9DD0204698479AE760
:101EC000E36B002B97D02046984794E712F0200F41
:101ED0003BD123683449354A934218BF8B422AD0FC
:101EE0001832934227D01832934224D018329342AA
:101EF00021D0183293421ED0183293421BD0183290
:101F0000934218D002F55672934214D0183293427D
:101F100011D0183293420ED0183293420BD018329F
:101F2000934208D01832934205D01832934202D01F
:101F30001832934210D11A6822F014021A6000235A
:101F400084F83430012384F83530E36B002B3FF400
:101F500052AF204698474EE71A6822F00A021A60EC
:101F6000EDE7082000FA01F111EA0C0F3FF443AF4E
:101F700012F0080F3FF43FAF1A6822F00E021A6009
:101F8000E36D03F01F03012202FA03F37B60626535
:101F9000002384F8343084F83520E36C002B3FF4C0
:101FA0002AAF2046984726E710000240280002404A
:101FB00090F835007047406D7047704770470000DB
:101FC00010B57B4B1B6913F4803F18D0794B1B78FD
:101FD000DBB2012B4AD0774B1C78E4B2072C18BF38
:101FE000022C68D0032C6AD0043CE4B2022C06D93F
:101FF000704B00221A706E4B4FF480325A616C4B5A
:10200000D3F8103113F4803F19D06A4B1B78DBB240
:10201000042B59D0674B1C78E4B2072C18BF052C51
:1020200079D0062C7BD0013CE4B2022C07D9614B5D
:1020300000221A705E4B4FF48032C3F814215C4BBF
:102040001B6913F4DC0379D05A4A916919439161F1
:1020500057494B611378DBB2012B65D0072B18BFB2
:10206000022B00F08580534B186962E0514B5A688F
:10207000013A5A605B6883B14E4CE068FFF79DFF00
:102080004B4B4FF480325A61E3680133E360E06800
:10209000A268012100F090F8B1E7464B4FF0FF3203
:1020A000DA6000221A70D868FFF787FF404B4FF4C0
:1020B00080325A61A3E70120FFF77FFF94E73D4B91
:1020C0001869FFF77AFF8FE73A4B5A68013A5A606E
:1020D0005B688BB1374CE068FFF76FFF344B4FF410
:1020E0008032C3F81421E3680133E360E068A2683A
:1020F000022100F061F8A2E72E4B4FF0FF32DA60C8
:1021000000221A70D868FFF758FF294B4FF480322D
:10211000C3F8142193E70220FFF74FFF83E7254B15
:102120001869FFF74AFF7EE71346D0684FF0FF3289
:10213000DA60204B00221A70FFF740FF1C4BD3F8E7
:10214000103113F4DC031ED01A498A691A4342F095
:1021500000428A61164AC2F814310B78DBB2042BB4
:1021600008D0072B18BF052B1FD0124B186905E0AC
:102170000120DEE7C8684FF0FF32CA600D4B002235
:102180001A70FFF71BFF0B4B1B786BB9084BDA6813
:1021900022F4DE02DA60D3F80C2122F4DE02C3F866
:1021A0000C21044B00221A7510BD0220E6E700BF87
:1021B000002000524803002030B411F0010F0BD072
:1021C000104CE36823F4E663E360E36842EA002529
:1021D0002B4343F08403E36011F0020F0FD0094951
:1021E000D1F80C3123F4E663C1F80C31D1F80C318D
:1021F00042EA00221A4342F08402C1F80C2130BCAA
:10220000704700BF00200052F0B583B000233AE0D1
:10221000092400E00024B4403C4302356E4E46F8E9
:1022200025406E4C2568D44304EA05064F6817F430
:10223000803F01D042EA0506684D2E606E6804EAD0
:1022400006054F6817F4003F01D042EA0605634EC9
:1022500075604FF0B0452D6804EA05064F6817F425
:10226000801F01D042EA05064FF0B0452E606D6830
:102270002C404E6816F4001F01D042EA05044FF0CE
:10228000B042546001330A6832FA03F400F0A280CD
:1022900001249C402240F5D04D686E1E112D18BFC0
:1022A000012E01D9122D12D186685F000325BD4091
:1022B00026EA0506CD68BD4035438560466826EAB6
:1022C00004064D68C5F300149C4034434460C6685E
:1022D0005F000325BD40EC4326408D68BD4035437B
:1022E000C5604D68122D18BF022D13D1DE080836C7
:1022F00050F826E003F007054FEA850C0F2505FA94
:102300000CF52EEA050E0D6905FA0CF545EA0E05E9
:1023100040F82650056825404C6804F00304BC4092
:102320002C4304604C6814F0805FABD02C4CD4F884
:10233000F45045F00205C4F8F450D4F8F44004F029
:1023400002040194019C9D08AE1C234C54F8267095
:1023500003F00304A6000F24B44027EA0407214C2D
:10236000A0423FF457AF04F58064A04222D004F5A8
:102370008064A04220D004F58064A0421ED004F501
:102380008064A0421CD004F58064A0421AD004F5F9
:102390008064A04218D004F58064A04216D004F5F1
:1023A0008064A04214D004F58064A0423FF430AFB2
:1023B0000A2430E701242EE702242CE703242AE72D
:1023C000042428E7052426E7062424E7072422E737
:1023D000082420E703B0F0BD000400588000005836
:1023E00000440258000002580369194201D100203C
:1023F00070470120704712B90904816170478161FB
:10240000704708B54FF0B043D3F88830034200D18D
:1024100008BD4FF0B043C3F888000AF071FBF7E73E
:102420007047000008B5054BD8681A6822EA000218
:102430001A605860FFF7F4FF08BD00BF006502583E
:1024400003689A6912F0020F01D000229A620368B1
:102450009A6912F0010F03D19A6942F001029A6160
:10246000704711F0010F09D090F8413003F02803B4
:10247000282B01D0F22302E0422300E0002311F0D8
:10248000020F29D010B443F0440490F8412002F028
:102490002802282A12D043F0F40311F4004F0FD180
:1024A000102910D0202911D0402912D001680A68C3
:1024B00022EA03030B605DF8044B70472346ECE708
:1024C00043F0B803ECE743F09003EBE743F020035D
:1024D000EAE743F04003E9E711F4004F0BD110297C
:1024E0000CD020290DD040290ED001680A6822EABC
:1024F00003030B60704743F0B803F0E743F0900329
:10250000EFE743F02003EEE743F04003EDE7000080
:10251000002857D010B5044690F84130002B41D028
:10252000242384F841302268136823F001031360E8
:102530006368226823F0706313612268936823F450
:1025400000439360E368012B31D0A368226843F411
:1025500004439360E368022B2FD0226851681A4B22
:102560000B4353602268D36823F40043D36023698C
:1025700062691343A169226843EA0123D360E369D6
:10258000216A22680B4313602268136843F0010339
:10259000136000206064202384F84130206384F8B5
:1025A000420010BD80F840300AF088FBB8E7A3680D
:1025B000226843F400439360CCE723684FF4006241
:1025C0005A60CAE7012070470080000208B503681E
:1025D00099691A68436B03B1984708BD7047704703
:1025E00010B5044603681A68002180F8421012F4FE
:1025F000804F0ED01A6822F480421A6094F841305D
:10260000DBB2292B0DD094F84130DBB22A2B18D045
:1026100010BD12F4004FF1D01A6822F400421A6083
:10262000ECE7282384F8413021232363012120464D
:10263000FFF717FF002384F840302046FFF7CEFF56
:10264000E6E7282384F84130222323630221204631
:10265000FFF707FF002384F840302046FFF7BFFF55
:10266000D6E77047F8B590F8413003F02803282BDF
:1026700006D003680822DA61002380F84030F8BDF4
:10268000044603689E69C6F300469A69120C02F07C
:10269000FE059A68C2F30902DF6807F0FE07C16809
:1026A000022922D185EAD21515F0060F10D1816CCE
:1026B00001318164816C0229E1D10021816408200B
:1026C000D86184F8401031462046FFF7CAFFD6E7AC
:1026D0004FF40041FFF7C5FE002384F840303A462E
:1026E00031462046FFF7BDFFC9E74FF40041FFF731
:1026F000B8FE002384F840302A4631462046FFF7D2
:10270000B0FFBCE77047000010B50446174BC3622A
:1027100000230363202280F8412080F84230436385
:1027200011F0040F12D003685A6A436A1A70436AA0
:1027300001334362038D4BB1013B0385438D013B64
:102740009BB24385436C43F00403436448F20301A6
:102750002046FFF786FE23681022DA61002384F802
:1027600040302046FFF7CEFF10BD00BF0000FFFF46
:102770007047704708B590F84130DBB2602B06D047
:102780000023036380F84030FFF7F2FF08BD2023E9
:1027900080F841300023036380F84030FFF7E9FF01
:1027A000F4E7000010B5044690F84130002280F8AC
:1027B00042203B48E0626285626C11436164283BC1
:1027C000DBB2022B2DD803212046FFF74AFE282337
:1027D00084F84130334B6363236BA26B002A34D0FF
:1027E000212B18BF112B30D123681A6812F4804FA7
:1027F00003D01A6822F480421A60A06BFFF7D8FB5E
:1028000001281ED0A36B284A1A65002384F84030A3
:10281000A06BFEF7E7FE002840D0A06B036D984741
:102820003CE048F203012046FFF71BFE94F84130DC
:10283000DBB2602B02D0202384F841300023636395
:10284000CAE72046FFF796FF28E0E26B1AB3222B77
:1028500018BF122B1FD123681A6812F4004F03D03F
:102860001A6822F400421A60E06BFFF7A1FB01280E
:102870000DD0E36B0C4A1A65002384F84030E06BFE
:10288000FEF7B0FE50B1E06B036D984706E02046BE
:10289000FFF770FF02E02046FFF76CFF10BD00BF9E
:1028A0000000FFFFED2A0008AF2C000870B50446B9
:1028B0000D460268166890F84130DBB22021D161E4
:1028C000292B18BF212B57D02A2B18BF222B5AD0C7
:1028D0002268536843F4004353602268536823F02E
:1028E000FF7323F48B3323F4FF7323F0010353604E
:1028F0002046FFF7A5FD16F4804F00F08480226883
:10290000136823F480431360A36B002B45D01B682E
:102910007349744A934218BF8B423BD0183293429A
:1029200038D01832934235D01832934232D0183210
:1029300093422FD0183293422CD01832934229D090
:1029400002F55672934225D01832934222D01832A3
:1029500093421FD0183293421CD01832934219D0A0
:102960001832934216D01832934213D01832934241
:1029700010D05B689BB20FE048F20101FFF771FDD8
:1029800021232363A4E748F20201FFF76AFD222313
:1029900023639DE75B689BB2638515F0040F10D03D
:1029A00025F0040523685A6A636A1A70636A013362
:1029B0006362238D2BB1013B2385638D013B9BB269
:1029C0006385638D9BB21BB1636C43F00403636446
:1029D000002384F842306363636C002B57D1E36AB1
:1029E00013F5803F61D194F84130DBB2222B6CD0DB
:1029F000202384F841300023236384F840302046AC
:102A0000FFF7ECFD60E016F4004FC6D022681368B3
:102A100023F400431360E36B002BBED01B683049E6
:102A2000304A934218BF8B422DD0183293422AD09D
:102A30001832934227D01832934224D0183293424E
:102A400021D0183293421ED0183293421BD002F587
:102A50005672934217D01832934214D018329342D0
:102A600011D0183293420ED0183293420BD0183244
:102A7000934208D01832934205D01832934202D0C4
:102A80005B689BB201E05B689BB2638585E7616C24
:102A90002046FFF787FE94F84130DBB2282B13D194
:102AA00029462046FFF730FE0EE02046FFF798FD4E
:102AB0000D4BE362202384F841300023236384F824
:102AC00040302046FFF71EFE70BD202384F84130C1
:102AD0000023236384F840302046FFF780FDF3E7AE
:102AE00010000240280002400000FFFFF8B5C76A4E
:102AF00090F84030012B00F0A38016460D460446A6
:102B0000012380F8403011F0200F02D012F0200F86
:102B100019D115F0100F45D016F0100F42D0638D6B
:102B20009BB243BB94F84130DBB2282B0ED094F813
:102B30004130DBB2292B11D023681022DA6100204A
:102B400084F84000F8BDFFF7B1FEE2E7B7F1007F7F
:102B5000EDD129462046FFF7D7FDF0E717F5803F76
:102B6000EAD023681022DA612046FFF769FC20468C
:102B7000FFF736FDE3E723681022DA61636C43F068
:102B800004036364B7F1807F14BF00230123002F87
:102B900014BF1F460127002FD1D0616C2046FFF7DC
:102BA00001FECCE715F0040F1ED016F0040F1BD069
:102BB000638D9BB26BB123685A6A636A1A70636A49
:102BC00001336362238D013B2385638D013B9BB2FF
:102BD0006385638D9BB2002BB1D117F5803FAED0DA
:102BE0002046FFF7FDFCAAE715F0080F02D016F00B
:102BF000080F17D115F0020FA1D016F0020F9ED0CA
:102C0000638D9BB29BB1626A236812789A62636A91
:102C100001336362638D013B9BB26385238D013B6E
:102C200023858CE729462046FFF71CFD87E7002F08
:102C300018BFB7F1807F82D12046FFF7D1FC7EE735
:102C400002207FE710B502689369116813F4807F52
:102C500009D011F0800F06D0446C44F001044464A4
:102C60004FF48074D46113F4806F0AD011F0800F98
:102C700007D0426C42F00802426402684FF480645C
:102C8000D46113F4007F0AD011F0800F07D0436C99
:102C900043F00203436403684FF40072DA61416C4D
:102CA00011F00B0F00D110BDFFF77CFDFBE708B55D
:102CB000806B836B0BB100221A65C36B0BB10022D2
:102CC0001A65FFF757FD08BD90F84130DBB2202BA5
:102CD00024D190F84030012B22D0012380F84030DD
:102CE000242380F841300268136823F00103136045
:102CF0000268136823F48053136002681368194351
:102D000011600268136843F001031360202380F808
:102D10004130002380F84030184670470220704749
:102D20000220704790F84130DBB2202B22D190F87E
:102D30004030012B20D0012380F84030242380F83C
:102D400041300268136823F00103136002681368BE
:102D500023F4706343EA012111600268136843F0B1
:102D600001031360202380F84130002380F84030B5
:102D70001846704702207047022070472DE9F0473F
:102D800082B00768CA00521A930003445A6D1B6D43
:102D90009A4257D8B8469B1AC1EBC104A20002441C
:102DA000526C9A4200D31A460C46064602F1030AB8
:102DB0004FEA9A0A16E009F1030A4FEA9A0AE30079
:102DC0001B1B9D003544A96C337C00931FFA89F3CB
:102DD000E2B2384607F0B2FAAB6C4B44AB646B6DB1
:102DE0004B446B6508EB441303F510639B699BB27E
:102DF000534513D3E3001B1B9A003244516D136DEE
:102E000099420BD253B15B1AC4EBC4018A0032441D
:102E1000D2F844909945CED39946CCE7E3001B1BEA
:102E200098000644326D736D9A420FD804F00F0477
:102E30000121A140D7F8344824EA0104C7F83448F6
:102E4000002000E0012002B0BDE8F0870020FAE792
:102E5000F0B58BB0002800F091800446056890F82A
:102E6000BD3323B3032384F8BD33EB6B13F4807FAE
:102E700001D100232361206806F0FEFF254655F8A6
:102E8000107B6E460FCD0FC60FCD0FC695E8030021
:102E900086E80300231D0ECB384606F02BFF58B101
:102EA000022384F8BD33012528460BB0F0BD80F81D
:102EB000BC330AF0ADFFD5E70021206806F0E2FF41
:102EC000002315E0D900C81A82002244012082F8AC
:102ED0003D0082F83C30A2F84230002082F83F00EA
:102EE00050649064CA1A9100214408650133DBB232
:102EF0006568AB42E6D3002315E0D800C11A8A000A
:102F00002244002182F8FD1182F8FC3182F8FF1181
:102F1000C2F80412C2F80812C21A90002044C0F885
:102F200010120133DBB29D42E7D8254655F8107BDD
:102F30006E460FCD0FC60FCD0FC695E8030086E88D
:102F40000300231D0ECB384606F0E2FF054660B9AC
:102F5000002384F83830012384F8BD33636A012BE1
:102F600008D0206807F095FB9EE7022384F8BD3364
:102F7000012599E7204600F0CFFCF2E7012593E711
:102F8000026890F8BC33012B19D010B5012380F8EA
:102F9000BC33836A012B0AD00446006807F06DFB3E
:102FA000206806F063FF002084F8BC0310BD83692D
:102FB000012BF1D0936B43F480339363ECE7022051
:102FC0007047000070B504460D460068066C00EBC3
:102FD000411303F530639A682169012911D03749FB
:102FE0008E4254D03DB9C5EBC50293002344D3F8BB
:102FF0001032002B5CD0E9B220460AF063FF0020BB
:1030000070BD12F0080F09D02D498E42F7D912F485
:10301000004FF4D04FF400429A60F0E712F0200F16
:1030200028D112F0280FEAD125498E4202D912F494
:10303000004F22D1E900491B8A002244D2F8041231
:103040001B69C3F31203C91AC2F81412D2F804128E
:10305000D2F808320B44C2F8083235B9C5EBC502C4
:1030600093002344D3F810325BB1E9B220460AF052
:1030700029FFC4E720229A60C1E74FF400429A601A
:10308000BDE704F57172012107F054FBEDE712F47E
:10309000004F09D112F0200F01D020229A60E9B22E
:1030A00020460AF00FFFAAE74FF400429A60A6E715
:1030B00004F57172002107F03DFB9CE70A31544F83
:1030C0000A30544F38B5044603681D6C03EB4111B8
:1030D000D1F8082B0E4B9D4207D901F5306112F44F
:1030E000004F02D04FF400438B6020460AF0E2FE0E
:1030F000074B9D4202D92369012B01D0002038BD26
:1031000004F571720121206807F014FBF6E700BF97
:103110000A30544F2DE9F84F04460568284607F059
:10312000F5FA08B1BDE8F88F2F460646206807F08B
:10313000BCFA0028F6D0206807F0B7FA10F0020FAA
:1031400004D02268536903F002035361206807F03A
:10315000ACFA10F0100F15D02268936923F0100319
:103160009361D5F8208008F00F09C8F34343022B80
:1031700000F08580062B00F0A5802268936943F05B
:1031800010039361206807F090FA10F4002F40F0CC
:10319000AD80206807F089FA10F4802F40F0F180AC
:1031A000206807F082FA0028C0F25F81206807F0EB
:1031B0007CFA10F4006F0AD0D5F8083813F0010F2C
:1031C00040F06D812268536903F400635361206805
:1031D00007F06BFA10F0006F15D02268536903F006
:1031E0000063536194F8F433002B40F05C810121BB
:1031F00084F8F41323685B6DC3F38303C4F8F833D6
:10320000204600F09DFB206807F04FFA10F4805F25
:1032100040F04D81206807F048FA10F4005F40F05C
:10322000AB81206807F041FA10F0080F40F0BC8134
:10323000206807F03AFA10F4801F40F0BE81206841
:1032400007F033FA10F4001F40F0C181206807F046
:103250002CFA10F0804F40F0C481206807F025FA66
:1032600010F0040F3FF45EAF23685D6815F0040FA3
:1032700040F0C081226853682B43536052E747F601
:10328000F07318EA030F3FF478AF4FEAC90BABEBCA
:1032900009034FEA830AA2444FEA1818C8F30A0246
:1032A000DAF80812284607F069F9C8F30A08DAF8CC
:1032B00008324344CAF80832DAF814324344CAF8F0
:1032C00014325AE7082204F57171284607F056F9BE
:1032D000C8F30A184FEAC903A3EB09018A00224484
:1032E000D2F814324344C2F8143246E7206807F09B
:1032F000E0F98046B14617E007EB49130122C3F815
:10330000082B49462046FFF75DFE1DE007EB4913F9
:103310000822C3F8082B49462046FFF7D3FE16E0E3
:1033200009F101094FEA5808B8F1000F3FF431AF35
:1033300018F0010FF4D05FFA89F1206807F0C9F99D
:10334000824610F0010FD7D11AF0080FDED11AF023
:10335000100F04D007EB49131022C3F8082B1AF002
:10336000200F04D007EB49132022C3F8082B1AF4CE
:10337000005FD5D007EB49134FF40052C3F8082B78
:10338000CEE7206807F09DF98046B1462AE059460D
:1033900020460AF0A3FD1AF0080F04D007EB4913EA
:1033A0000822C3F808291AF0100F04D007EB4913BC
:1033B0001022C3F808291AF0400F04D007EB491374
:1033C0004022C3F808291AF0020F04D007EB491372
:1033D0000222C3F808291AF0800F41D109F101092E
:1033E0004FEA5808B8F1000F3FF4DAAE18F0010FB9
:1033F000F4D05FFA89FB5946206807F073F98246DA
:1034000010F0010FC7D009F00F03012101FA03F2F8
:10341000D7F8343823EA0203C7F8343807EB4913E6
:10342000C3F8081923698B42B1D14FEAC902A2EB54
:10343000090293002344596C9A6C0A449A64B9F1C6
:10344000000FA4D1C9EBC902930023441B6D002BCC
:103450009DD104F571720121206807F06BF996E7A0
:1034600049462046FFF78AFCB8E7D5F8043823F030
:103470000103C5F8043894F8F433012B08D0204632
:103480000AF06CFD2268536903F0004353618DE636
:10349000002184F8F413204600F052FAF2E72046A7
:1034A0000AF044FD8EE620460AF040FDABE605F545
:1034B0000068D8F8043023F00103C8F80430102164
:1034C000206806F0F7FC20E007EB46134FF67F314B
:1034D000C3F80819D3F8002922F40012C3F8002910
:1034E000D3F8002942F00062C3F80029C3F8081B92
:1034F000D3F8002B22F40012C3F8002BD3F8002BD2
:1035000042F00062C3F8002B01366368B342DBD897
:10351000D8F81C3043F00113C8F81C30236BEBB112
:10352000D8F8843043F00B03C8F88430D8F844301E
:1035300043F00B03C8F84430D5F8003823F4FE6399
:10354000C5F8003804F57172217C206807F0F2F8A4
:103550002268536903F4805353615BE6D8F8142062
:1035600042F22B031343C8F81430D8F8103043F05C
:103570000B03C8F81030DFE7206807F0CBF82068AD
:1035800006F08AFDE060256800F0A6FF227B014678
:10359000284606F0F5FB20460AF0B1FC2268536984
:1035A00003F4005353613CE620460AF0A2FC226873
:1035B000536903F0080353613AE6002120460AF0FC
:1035C000D9FC2268536903F48013536137E6002164
:1035D00020460AF0C9FC2268536903F400135361C2
:1035E00034E620460AF0CCFC2268536903F080439D
:1035F000536132E620460AF0C9FC3BE690F8BC3342
:10360000012B0DD010B50446012380F8BC3380F89F
:103610003810006807F021F8002084F8BC0310BDC2
:1036200002207047F8B511F0800F28D101F00F0685
:10363000F500AF1BBC00274604F5FC7404440434B9
:103640003E460644002586F8FD5101F00F01217029
:10365000A260E370627802B1E180022B1ED090F884
:10366000BC33012B1DD00546012380F8BC33214615
:10367000006806F021FD002085F8BC03F8BD01F0CC
:103680000F06F500AF1BBC00274638340444043451
:103690003E460644012586F83D50D6E700232371B7
:1036A000DDE70220EAE738B511F0800F21D101F003
:1036B0000F05EA00541BA3001C4603F5FC730344EA
:1036C000043325460544002285F8FD2101F00F0151
:1036D000197090F8BC23012A1AD00446012280F800
:1036E000BC231946006806F02FFD002084F8BC03B7
:1036F00038BD01F00F04E200151BAB001D46383346
:10370000034404332C460444012284F83D20DDE7C1
:103710000220EDE770B501F00F05EE00711B8C0083
:1037200004F5FC740444211D761BB4000444C4F861
:103730000822C4F810320023C4F8143284F8FD3192
:1037400084F8FC510369012B06D065B1DAB2006838
:1037500006F008FE002070BDC5EBC506B4000444A9
:10376000C4F80C22F1E7DAB2006806F05BFDF1E77D
:1037700001F00F01C1EBC1018B001844D0F8140215
:10378000704770B501F00F05EE00711B8C003834E6
:103790000444211D761BB4000444A2642365002365
:1037A0006365012384F83D3084F83C500369012BA4
:1037B00006D05DB1DAB2006806F0D4FD002070BD1D
:1037C000C5EBC506B4000444E264F2E7DAB200686F
:1037D00006F028FDF2E738B501F00F0543689D4279
:1037E00036D811F0800F20D1CA00541AA3001C460D
:1037F00003F5FC730344043322460244002182F89B
:10380000FD1101229A701D7090F8BC23012A21D06D
:103810000446012280F8BC231946006806F0C2FE67
:103820007DB1002084F8BC0313E0EA00511B8B003B
:1038300019463833034404330144012281F83D2002
:10384000DFE704F57172217C206806F073FFE8E77A
:10385000012038BD0220FCE710B501F00F044368D9
:103860009C422CD811F0800F1DD1E3001A1B91004F
:103870000A4601F5FC71014404310244002382F838
:10388000FD3100238B700C7090F8BC33012B18D0E5
:103890000446012380F8BC33006806F0B0FE002027
:1038A00084F8BC030CE0E3001A1B91000A4638318F
:1038B000014404310244012382F83D30E1E7012054
:1038C00010BD0220FCE730B40468606A29B10D46DF
:1038D000A36A00EB134000230CE040EA0240A06220
:1038E00012E003F1400104EB8101496800EB114053
:1038F0000133DBB2691E8B42F3D340EA024005F18B
:103900003F0104EB81014860002030BC7047036830
:103910005962002070470000024603680121C0F888
:10392000FC13002082F8F4039A6942F000629A6165
:10393000596D024A0A435A65704700BF03000010E0
:1039400070477047134BDB6813F0040F07D1114B1E
:10395000DB6803F0070383421AD00120704710B5DB
:103960000C4AD36823F007031843D060FCF7E8FE45
:103970000446084B5B6813F4005F07D1FCF7E0FED8
:10398000001BB0F57A7FF4D9012000E0002010BDC3
:103990000020704700480258024AD36843F0807301
:1039A000D3607047004802587047000008B5174BB5
:1039B0001B6813F0100F06D04FF0B043D3F88830D7
:1039C00013F4803F0CD1114B1B6813F4803F06D0D9
:1039D0004FF0B043D3F8883013F4803F0BD108BDCB
:1039E000FFF7AFFF4FF0B042D2F8883043F4803396
:1039F000C2F88830E7E7FFF7D7FF4FF0B042D2F8C0
:103A0000883043F48033C2F88830E8E70048025831
:103A1000002800F00C8338B50446036813F0010F4A
:103A200025D09D4A136903F03803926A102B15D0F4
:103A3000182B0FD06368B3F5803F3FD0002B53D1D4
:103A4000954B1A6822F480321A601A6822F4802298
:103A50001A6038E002F00302022AEBD18E4B1B6899
:103A600013F4003F03D06368002B00F0E282236868
:103A700013F0020F00F08B80874A1369926A13F0EB
:103A800038035AD0182B55D0E368002B00F0C880BB
:103A900081490A6822F0190213430B60FCF750FEBB
:103AA00005467D4B1B6813F0040F40F09780FCF730
:103AB00047FE401B0228F4D90320BFE2764A136870
:103AC00043F48033136063682BB3FCF739FE05467B
:103AD000714B1B6813F4003FC9D1FCF731FE401B4A
:103AE0006428F5D90320A9E2B3F5A02F09D06A4BC9
:103AF0001A6822F480321A601A6822F480221A604E
:103B0000E1E7654B1A6842F480221A601A6842F4B1
:103B100080321A60D7E7FCF713FE05465E4B1B6840
:103B200013F4003FA3D0FCF70BFE401B6428F5D92B
:103B3000032083E212F0030FA6D1574B1B6813F04A
:103B4000040F03D0E368002B00F07582FCF712FE2F
:103B500041F20303984212D82269402A07D04E4905
:103B60004B6823F47C3343EA02334B600FE04A4A4C
:103B7000536823F47C3343F40033536007E0464A30
:103B8000536823F0FE43216943EA016353602368CD
:103B900013F0100F00F08A803F4A136903F03803D6
:103BA000926A082B54D0182B4ED0E369002B00F0FA
:103BB000BA80394A136843F080031360FCF7C0FDF4
:103BC0000546354B1B6813F4807F40F08A80FCF774
:103BD000B7FD401B0228F4D903202FE2FCF7CAFDF1
:103BE00041F20303984212D82269402A07D02A4999
:103BF0004B6823F47C3343EA02334B60C7E7264A21
:103C0000536823F47C3343F400335360BFE7224A04
:103C1000536823F0FE43216943EA01635360B6E72A
:103C20001D4A136823F001031360FCF789FD054664
:103C3000194B1B6813F0040FA9D0FCF781FD401B42
:103C40000228F5D90320F9E102F00302012AACD1E0
:103C5000114B1B6813F4807F04D0E369802B01D0E3
:103C60000120EBE1FCF786FD41F20303984215D8F1
:103C7000226A202A07D008494B6823F0F84343EA18
:103C800082634B6012E0044A536823F0F84343F028
:103C9000804353600AE000BF004402589A4AD36848
:103CA00023F07C53216A43EA0163D360236813F055
:103CB000080F60D06369002B49D0934A536F43F0DB
:103CC00001035367FCF73CFD05468F4B5B6F13F018
:103CD000020F50D1FCF734FD401B0228F5D9032018
:103CE000ACE1FCF747FD41F20303984212D8226A87
:103CF000202A07D084494B6823F0F84343EA8263C3
:103D00004B60D3E7804A536823F0F84343F0804385
:103D10005360CBE77C4AD36823F07C53216A43EAA3
:103D20000163D360C2E7784A136823F0800313600D
:103D3000FCF706FD0546744B1B6813F4807FB5D075
:103D4000FCF7FEFC401B0228F5D9032076E16E4A01
:103D5000536F23F001035367FCF7F2FC05466A4BEF
:103D60005B6F13F0020F06D0FCF7EAFC401B022841
:103D7000F5D9032062E1236813F0200F29D0A3694D
:103D80009BB1614A136843F480531360FCF7D8FC7D
:103D900005465D4B1B6813F4005F1AD1FCF7D0FC9D
:103DA000401B0228F5D9032048E1574A136823F441
:103DB00080531360FCF7C4FC0546534B1B6813F497
:103DC000005F06D0FCF7BCFC401B0228F5D903209D
:103DD00034E1236813F0040F21D1636A002B00F053
:103DE0002C81494A126902F03802182A00F0EE804C
:103DF000022B75D0444A136823F080731360FCF7DC
:103E00009FFC0446404B1B6813F0007F00F0DC80F1
:103E1000FCF796FC001B0228F4D903200EE13B4A74
:103E2000136843F480731360FCF78AFC0546374B34
:103E30001B6813F4807F06D1FCF782FC401B6428CA
:103E4000F5D90320FAE0A368012B0AD00BBB2E4B57
:103E50001A6F22F001021A671A6F22F004021A6721
:103E600004E0294A136F43F001031367A36833B3D7
:103E7000FCF766FC0546244B1B6F13F0020FACD118
:103E8000FCF75EFC401B41F288339842F3D90320D3
:103E9000D4E0052B09D01C4B1A6F22F001021A67DF
:103EA0001A6F22F004021A67E0E7174B1A6F42F00C
:103EB00004021A671A6F42F001021A67D6E7FCF78C
:103EC0003FFC0546104B1B6F13F0020F85D0FCF72B
:103ED00037FC401B41F288339842F3D90320ADE010
:103EE000094A136823F080731360FCF729FC054628
:103EF000054B1B6813F0007F0AD0FCF721FC401B28
:103F00000228F5D9032099E00044025800480258DD
:103F10004E4B996A4E4A0A40A16AE06A41EA001192
:103F20000A439A62226B013AC2F30802616B0139BB
:103F3000490289B20A43A16B0139090401F4FE0167
:103F40000A43E16B0139090601F0FE410A431A6395
:103F5000DA6A22F00102DA62596B3E4A0A40A16C29
:103F600042EAC1025A63DA6A22F00C02216C0A4367
:103F7000DA62DA6A22F00202616C0A43DA62DA6A11
:103F800042F48032DA62DA6A42F40032DA62DA6AE1
:103F900042F48022DA62DA6A42F00102DA621A68D6
:103FA00042F080721A60FCF7CBFB0446274B1B687B
:103FB00013F0007F06D1FCF7C3FB001B0228F5D9E4
:103FC00003203BE0002039E0002037E01F4A916ADF
:103FD000106B012B33D001F00303A26A934201D08E
:103FE00001202BE0C1F30511E36A994201D00120C1
:103FF00024E0C0F30802236B013B9A4201D0012068
:104000001CE0C0F34622636B013B9A4201D00120C1
:1040100014E0C0F30642A36B013B9A4211D1C0F3F6
:104020000660E36B013B98420DD0012006E00120C1
:104030007047012002E0012000E0002038BD01208F
:10404000FCE70120FAE70020F8E700BF004402582F
:104050000CFCFFFF0700FFFF724B1B6903F03803E6
:10406000102B00F0DB80182B10D00BB16E4870477E
:104070006C4B1B6813F0200F00F0D280694B18685E
:10408000C0F3C100694B23FA00F07047654A916A9A
:1040900001F00301906AC0F30510D36A03F0010335
:1040A000526BC2F3CC0203FB02F307EE903AF8EE38
:1040B000677A002800F0B580012966D0F9B102299D
:1040C00000F08F8007EE100AF8EE476A9FED586AFD
:1040D00086EE267A534B1B6BC3F3080306EE903A29
:1040E000F8EE666A9FED536A67EE867A76EEA77AF7
:1040F000F7EE006A77EEA67A27EE277A61E0494B61
:104100001B6813F0200F23D046490A68C2F3C1028E
:10411000464BD34007EE103AF8EE476A07EE100A16
:10412000B8EE476A86EE867A0B6BC3F3080306EE99
:10413000903AF8EE666A9FED3F6A67EE867A76EE11
:10414000A77AF7EE006A77EEA67A27EE277A38E0AC
:1041500007EE100AF8EE476A9FED376A86EE267A78
:10416000304B1B6BC3F3080306EE903AF8EE666A19
:104170009FED306A67EE867A76EEA77AF7EE006AF0
:1041800077EEA67A27EE277A1BE007EE100AF8EE04
:10419000476A9FED276A86EE267A224B1B6BC3F394
:1041A000080306EE903AF8EE666A9FED226A67EE23
:1041B000867A76EEA77AF7EE006A77EEA67A27EE91
:1041C000277A184B1B6BC3F34623013307EE903A53
:1041D000F8EE677AC7EE276AFCEEE67A17EE900AE9
:1041E000704707EE100AF8EE476A9FED146A86EEF4
:1041F000267A0C4B1B6BC3F3080306EE903AF8EEDD
:10420000666A9FED0C6A67EE867A76EEA77AF7EE1D
:10421000006A77EEA67A27EE277AD2E70848704739
:10422000024870470044025800093D000090D00346
:104230000024744A000000390024744C0024F44B1C
:104240000048E801002800F0368103469C4A1268C5
:1042500002F00F028A420CD29948026822F00F0243
:104260000A430260026802F00F028A4201D0012074
:10427000704770B51A6812F0040F0CD01869914A93
:10428000926902F07002904205D98E4CA26922F028
:1042900070021043A0611A6812F0080F0CD0586920
:1042A000884AD26902F07002904205D9854CE269D1
:1042B00022F070021043E0611A6812F0100F0CD067
:1042C0009869804AD26902F4E062904205D97D4C37
:1042D000E26922F4E0621043E0611A6812F0200FF4
:1042E0000CD0D869774A126A02F07002904205D960
:1042F000744C226A22F07002104320621A6812F095
:10430000020F0CD0D8686F4A926902F00F029042F7
:1043100005D96C4CA26922F00F021043A0611C4623
:104320000D461B6813F0010F41D0664A936923F4D0
:104330007063A1680B4393616368022B0AD0032B5F
:1043400027D0012B2CD05F4A126812F0040F06D13F
:104350000120AFE0126812F4003F00F0AE8059492E
:104360000A6922F0070213430B61FCF7E9F90646DC
:10437000544B1B6903F038036268B3EBC20F16D0CD
:10438000FCF7DEF9801B41F288339842F0D9032014
:1043900090E04C4A126812F0007FE0D1012089E0E1
:1043A000484A126812F4807FD9D1012082E0236844
:1043B00013F0020F0CD0E268424B9B6903F00F032D
:1043C0009A4205D23F498B6923F00F031A438A6151
:1043D0003B4B1B6803F00F03AB420CD9384A136800
:1043E00023F00F032B431360136803F00F03AB425A
:1043F00001D001205EE0236813F0040F0CD0226985
:10440000304B9B6903F070039A4205D22D498B69AA
:1044100023F070031A438A61236813F0080F0CD04D
:104420006269284BDB6903F070039A4205D2254983
:10443000CB6923F070031A43CA61236813F0100F8D
:104440000CD0A2691F4BDB6903F4E0639A4205D2EA
:104450001C49CB6923F4E0631A43CA61236813F053
:10446000200F0CD0E269174B1B6A03F070039A42CD
:1044700005D214490B6A23F070031A430A62FFF74E
:10448000EBFD10498B69C3F303230F4AD35C03F0A0
:104490001F03D8408B6903F00F03D35C03F01F03A5
:1044A00020FA03F3094A1360094B1860094B186896
:1044B000FCF7E6F870BD012070470120FAE700BF65
:1044C0000020005200440258CCF200089401002061
:1044D000900100200400002008B5FFF7BDFD0B4A45
:1044E0009369C3F303230A49CB5C03F01F0320FA4B
:1044F00003F3926902F00F02885C00F01F0023FAB8
:1045000000F0044A1060044A136008BD00440258D9
:10451000CCF20008940100209001002008B5FFF7BC
:10452000DBFF054BDB69C3F30213044AD35C03F0E2
:104530001F03D84008BD00BF00440258CCF2000859
:1045400008B5FFF7C9FF054BDB69C3F30223044A33
:10455000D35C03F01F03D84008BD00BF00440258DD
:10456000CCF20008404B9B6A03F00303032B79D085
:1045700070B50E4604463C4A136823F0806313600E
:10458000FCF7DEF80546384B1B6813F0006F06D0C9
:10459000FCF7D6F8401B0228F5D9032070BD324B3A
:1045A0009A6A22F47C32216842EA01329A62626895
:1045B000013AC2F30802A1680139490289B20A43EB
:1045C000E1680139090401F4FE010A432169013956
:1045D000090601F0FE410A439A63DA6A22F0C0023A
:1045E00061690A43DA62DA6A22F02002A1690A43A9
:1045F000DA62DA6A22F01002DA62D96B1B4A0A40E8
:10460000E16942EAC102DA63DA6A42F01002DA6270
:10461000C6B91A46DB6A43F40023D362124A136810
:1046200043F080631360FCF78BF804460E4B1B6865
:1046300013F0006F14D1FCF783F8001B0228F5D9A2
:104640000320ABE7012E05D0074AD36A43F40013D9
:10465000D362E3E7044AD36A43F48013D362DDE70D
:1046600000209BE701207047004402580700FFFF2D
:10467000404B9B6A03F00303032B79D070B50E46C1
:1046800004463C4A136823F080531360FCF758F843
:104690000546384B1B6813F0005F06D0FCF750F856
:1046A000401B0228F5D9032070BD324B9A6A22F0D4
:1046B0007C72216842EA01529A626268013AC2F34E
:1046C0000802A1680139490289B20A43E168013947
:1046D000090401F4FE010A4321690139090601F0C8
:1046E000FE410A431A64DA6A22F4406261690A43AD
:1046F000DA62DA6A22F40072A1690A43DA62DA6ADB
:1047000022F48072DA62596C1B4A0A40E16942EA7B
:10471000C1025A64DA6A42F48072DA62C6B91A4691
:10472000DB6A43F48003D362124A136843F0805378
:104730001360FCF705F804460E4B1B6813F0005F8E
:1047400014D1FBF7FDFF001B0228F5D90320ABE7CE
:10475000012E05D0074AD36A43F08073D362E3E7A2
:10476000044AD36A43F40003D362DDE700209BE7E9
:1047700001207047004402580700FFFFF8B50446C7
:10478000036813F0006F2BD0436EB3F5801F18D071
:1047900007D9B3F5001F1DD0B3F5401F2ED100255A
:1047A00006E05BBB934AD36A43F40033D36200252F
:1047B000904A136D23F44013616E0B43136500267A
:1047C00010E002210430FFF7CDFE0546002DEFD0AA
:1047D0002E4607E002212430FFF74AFF0546F5E7A1
:1047E00000263546236813F4807F17D0636D042BB1
:1047F00032D8DFE803F006242A0B0B0001263546E9
:10480000F0E77C4AD36A43F40033D3623DBB794A74
:10481000136D23F00703616D0B431365236813F4D5
:10482000007F33D0A36D802B44D01AD80BB3402B1C
:104830001CD10021201DFFF795FE05461EE000213A
:10484000201DFFF78FFE0546E0E7002104F124005C
:10485000FFF70EFF0546D9E701263546DEE72E466F
:10486000DCE7C02B0AD0B3F5807F07D001263546A0
:104870000CE0604AD36A43F40033D3620DBB5D4A57
:10488000136D23F4E073A16D0B431365236813F4D8
:10489000806F2FD0D4F8A430B3F5800F3ED012D85B
:1048A000D3B1B3F5001F14D10021201DFFF75AFE2C
:1048B000054616E0002104F12400FFF7D9FE054665
:1048C000DCE72E46E2E7B3F5C00F0AD0B3F5000FE0
:1048D00007D0012635460DE0464AD36A43F400333B
:1048E000D36215BB434A936D23F46003D4F8A4103C
:1048F0000B439365236813F4006F2FD0D4F8A830CE
:10490000B3F1007F37D012D8D3B1B3F1807F14D187
:104910000021201DFFF726FE054616E0002104F1C8
:104920002400FFF7A5FE0546DBE72E46E2E7B3F1DC
:10493000407F0AD0B3F1806F07D0012635460DE0E5
:104940002C4AD36A43F40033D362DDB9294A936D0C
:1049500023F0E063D4F8A8100B439365236813F0A9
:10496000007F2AD0A36C102B12D00DD9202B1DD084
:10497000302B12D009E0002104F12400FFF778FE6B
:104980000546E2E72E46E9E73BB10126354614E04D
:10499000184AD36A43F40033D3626DB9154AD36C15
:1049A00023F03003A16C0B43D36406E00221201DE9
:1049B000FFF7D8FD0546F0E72E46236813F4805F25
:1049C00027D0E36DB3F5005F3ED009D8A3B1B3F5AE
:1049D000805F0BD10021201DFFF7C4FD054610E0CC
:1049E000B3F5405F0DD0B3F5804F0AD001263546B0
:1049F0000FE000BF00440258934AD36A43F40033E7
:104A0000D36245BB904A136D23F4E043E16D0B4341
:104A10001365236813F4005F33D0236EB3F5003FB2
:104A200027D01AD83BB1B3F5803F1FD10121201DFB
:104A3000FFF798FD05461DBB834A136D23F4E02361
:104A4000216E0B4313651CE0002104F12400FFF7E5
:104A50000FFE0546D5E72E46DBE7B3F5802FEAD0FB
:104A6000B3F5A02FE7D0B3F5403FE4D0012635469B
:104A700007E0012104F12400FFF7FAFD0546DAE71B
:104A80002E46236813F4804F2CD0D4F8AC30B3F109
:104A9000005F1FD012D83BB1B3F1805F17D1012165
:104AA000201DFFF75FFD0546DDB9674A936D23F0D2
:104AB000E043D4F8AC100B43936513E0B3F1804F9F
:104AC000F2D0B3F1A04FEFD0B3F1405FECD00126AC
:104AD000354607E0012104F12400FFF7C9FD054632
:104AE000E2E72E46236813F4004F1FD0E36EB3F1C4
:104AF000805F06D0B3F1005F11D03BB1012635468F
:104B000014E0514AD36A43F40033D3626DB94E4A7C
:104B1000136D23F04053E16E0B43136506E0012152
:104B2000201DFFF71FFD0546F0E72E46236813F012
:104B3000807F1ED0636C032B17D8DFE803F00702D9
:104B40001007414AD36A43F40033D36285B93E4A21
:104B5000D36C23F00303616C0B43D36409E002219F
:104B6000201DFFF7FFFC0546F0E70126354600E073
:104B70002E46236813F4800F1FD1236813F0010F12
:104B800000F09E80A36F282B00F29680DFE803F0F0
:104B900084949494949494947F94949494949494FA
:104BA0008D949494949494948494949494949494DC
:104BB00084949494949494948400244A136843F4C1
:104BC00080731360FBF7BCFD0746204B1B6813F492
:104BD000807F05D1FBF7B4FDC01B6428F5D9032500
:104BE000002D50D1184B1B6FD4F8B020534013F454
:104BF000407F0CD0144B1A6F22F44072196F41F4AD
:104C000080311967196F21F4803119671A67D4F858
:104C1000B030B3F5807F1BD0002D36D1D4F8B03042
:104C200003F44072B2F5407F23D0074A136923F49E
:104C30007C53136104490B6FD4F8B020C2F30B020C
:104C400013430B6799E700BF00440258004802581D
:104C5000FBF776FD0746AC4B1B6F13F0020FDBD161
:104C6000FBF76EFDC01B41F288339842F3D9032550
:104C7000D2E7A548026922F47C52A44901EA131341
:104C800013430361D6E72E4677E72E4675E70121E9
:104C9000201DFFF767FC05468DB99B4A536D23F035
:104CA0003803A16F0B4353650AE0012104F124008E
:104CB000FFF7DEFC0546EFE70126354600E02E460D
:104CC000236813F0020F20D0636F052B19D8DFE89B
:104CD00003F00803110808080121201DFFF742FC1A
:104CE00005468DB9884A536D23F00703616F0B4366
:104CF00053650AE0012104F12400FFF7B9FC0546E1
:104D0000EFE70126354600E02E46236813F0040F36
:104D100022D0D4F89030052B1AD8DFE803F008032E
:104D2000120808080121201DFFF71CFC054695B953
:104D3000754A936D23F00703D4F890100B439365E5
:104D40000AE0012104F12400FFF792FC0546EEE79A
:104D50000126354600E02E46236813F0200F2CD0A4
:104D6000D4F88C30B3F1005F1FD012D83BB1B3F14F
:104D7000805F17D10021201DFFF7F4FB0546DDB948
:104D8000614A536D23F0E043D4F88C100B43536514
:104D900013E0B3F1804FF2D0B3F1A04FEFD0B3F1F5
:104DA000405FECD00126354607E0022104F12400E3
:104DB000FFF75EFC0546E2E72E46236813F0400F3E
:104DC0002CD0D4F89830B3F5006F1FD012D83BB177
:104DD000B3F5806F17D10021201DFFF7C3FB0546F7
:104DE000DDB9494A936D23F4E053D4F898100B438E
:104DF000936513E0B3F5805FF2D0B3F5A05FEFD019
:104E0000B3F5406FECD00126354607E0022104F1EE
:104E10002400FFF72DFC0546E2E72E46236813F039
:104E2000800F2CD0D4F89C30B3F5804F1FD012D80F
:104E30003BB1B3F5005F17D10021201DFFF792FBB6
:104E40000546DDB9304A936D23F46043D4F89C10D5
:104E50000B43936513E0B3F5004FF2D0B3F5204F49
:104E6000EFD0B3F5C04FECD00126354607E0022164
:104E700004F12400FFF7FCFB0546E2E72E46236819
:104E800013F0080F0CD0D4F88030B3F5805F28D031
:104E90001D4A536D23F44053D4F880100B435365DF
:104EA000236813F0100F0CD0D4F89430B3F5807F42
:104EB00020D0154A936D23F44073D4F894100B431B
:104EC0009365236813F4002F39D0D4F8A030B3F5DC
:104ED000803F2CD0B3F5003F1FD0CBB10126354623
:104EE0002DE0022104F12400FFF7C2FB0028CFD0FF
:104EF0000126CDE7022104F12400FFF7B9FB0028C9
:104F0000D7D00126D5E700BF00440258CFFFFF00ED
:104F10000021201DFFF726FB05467DB9644A936DED
:104F200023F44033D4F8A0100B43936507E002212B
:104F300004F12400FFF79CFB0546EEE72E462368AC
:104F400013F4802F24D0D4F88430B3F5001F17D089
:104F5000B3F5401F0AD0B3F5801F02D001263546B5
:104F600016E0534AD36A43F40033D3627DB9504A02
:104F7000536D23F44013D4F884100B43536507E0BA
:104F8000012104F12400FFF773FB0546EEE72E46EE
:104F9000236813F4803F14D0E36C2BB1B3F5803F4A
:104FA00023D0012635460CE0414AD36A43F400334E
:104FB000D36205BB3E4AD36C23F48033E16C0B43D0
:104FC000D364236813F0005F17D1236813F4003F04
:104FD0002DD0E36FB3F5807F1BD017D9B3F5007FD9
:104FE0001CD0B3F5407F12D118E00221201DFFF73D
:104FF000B9FA0546DDE72E46E3E7022104F1240075
:10500000FFF736FB0028E0D00126DEE733B10126AA
:105010000DE0274AD36A43F40033D362002D3DD11B
:10502000234A536D23F44073E16F0B4353652368A8
:1050300013F4801F06D01E4A136D23F00043216F26
:105040000B431365236813F0805F07D0184A136978
:1050500023F48043D4F8B4100B431361236813F492
:10506000001F06D0124A136D23F08073A16E0B430C
:105070001365236813F0804F09D00D4B1A6922F491
:1050800000421A611A69D4F8B8100A431A612368F9
:10509000002B05DB06B101263046F8BD2E46C6E7DB
:1050A000034AD36C23F04053216D0B43D364F1E7E3
:1050B0000044025808B5FFF70FFA054B1B6AC3F30B
:1050C0000213044AD35C03F01F03D84008BD00BF9D
:1050D00000440258CCF2000810B478498C6A8A6AFD
:1050E000C2F30532CB6AC3F30013C96BC1F3CC0121
:1050F00003FB01F3002A00F0DB8004F0030407EE59
:10510000903AF8EE677A012C66D0FCB1022C00F0E0
:10511000B28007EE102AB8EE477A9FED696AC6EEB4
:10512000076A664B9B6BC3F3080307EE103AB8EEB1
:10513000477A9FED646A67EE867A77EE277AB7EE54
:10514000007A77EE877A66EEA76A61E05B4B1B68B0
:1051500013F0200F23D0594C2168C1F3C1015A4BE1
:10516000CB4007EE103AB8EE477A06EE902AB8EE3A
:10517000666AC7EE066AA36BC3F3080307EE103A2C
:10518000B8EE477A9FED4F6A67EE867A77EE277A18
:10519000B7EE007A77EE877A66EEA76A38E007EE18
:1051A000102AB8EE477A9FED496AC6EE076A434B6C
:1051B0009B6BC3F3080307EE103AB8EE477A9FEDF6
:1051C000416A67EE867A77EE277AB7EE007A77EE55
:1051D000877A66EEA76A1BE007EE102AB8EE477AD8
:1051E0009FED376AC6EE076A344B9B6BC3F3080327
:1051F00007EE103AB8EE477A9FED326A67EE867A8C
:1052000077EE277AB7EE007A77EE877A66EEA76AAE
:105210002A4A936BC3F3462307EE103AB8EE477A57
:10522000B7EE006A37EE067AC6EE877AFCEEE77ACA
:10523000C0ED007A936BC3F3064307EE103AB8EE65
:10524000477A37EE067AC6EE877AFCEEE77AC0ED4B
:10525000017A936BC3F3066307EE903AF8EE677A30
:1052600077EE867A86EEA77ABCEEC77A80ED027A70
:105270005DF8044B704707EE102AB8EE477A9FEDB1
:10528000146AC6EE076A0D4B9B6BC3F3080307EE67
:10529000103AB8EE477A9FED0B6A67EE867A77EEA2
:1052A000277AB7EE007A77EE877A66EEA76AAFE7DD
:1052B0000023036043608360DAE700BF00440258C4
:1052C0000024744A000000390090D0030024744C7C
:1052D0000024F44B10B478498C6A8A6AC2F30552F0
:1052E000CB6AC3F30023496CC1F3CC0103FB01F388
:1052F000002A00F0DB8004F0030407EE903AF8EE99
:10530000677A012C66D0FCB1022C00F0B28007EE67
:10531000102AB8EE477A9FED696AC6EE076A664BB7
:105320001B6CC3F3080307EE103AB8EE477A9FED03
:10533000646A67EE867A77EE277AB7EE007A77EEC0
:10534000877A66EEA76A61E05B4B1B6813F0200F5B
:1053500023D0594C2168C1F3C1015A4BCB4007EE11
:10536000103AB8EE477A06EE902AB8EE666AC7EEB3
:10537000066A236CC3F3080307EE103AB8EE477AC7
:105380009FED4F6A67EE867A77EE277AB7EE007A5E
:1053900077EE877A66EEA76A38E007EE102AB8EE55
:1053A000477A9FED496AC6EE076A434B1B6CC3F30D
:1053B000080307EE103AB8EE477A9FED416A67EEB0
:1053C000867A77EE277AB7EE007A77EE877A66EEFE
:1053D000A76A1BE007EE102AB8EE477A9FED376AFE
:1053E000C6EE076A344B1B6CC3F3080307EE103A92
:1053F000B8EE477A9FED326A67EE867A77EE277AC3
:10540000B7EE007A77EE877A66EEA76A2A4A136CBF
:10541000C3F3462307EE103AB8EE477AB7EE006AB8
:1054200037EE067AC6EE877AFCEEE77AC0ED007AB0
:10543000136CC3F3064307EE103AB8EE477A37EE23
:10544000067AC6EE877AFCEEE77AC0ED017A136C35
:10545000C3F3066307EE903AF8EE677A77EE867A42
:1054600086EEA77ABCEEC77A80ED027A5DF8044B2F
:10547000704707EE102AB8EE477A9FED146AC6EE21
:10548000076A0D4B1B6CC3F3080307EE103AB8EE26
:10549000477A9FED0B6A67EE867A77EE277AB7EE4A
:1054A000007A77EE877A66EEA76AAFE7002303609B
:1054B00043608360DAE700BF004402580024744A66
:1054C000000000390090D0030024744C0024F44BF9
:1054D00010B478498C6A8A6AC2F30512CB6A03F069
:1054E0000103496BC1F3CC0103FB01F3002A00F077
:1054F000DB8004F0030407EE903AF8EE677A012CA3
:1055000066D0FCB1022C00F0B28007EE102AB8EE93
:10551000477A9FED696AC6EE076A664B1B6BC3F359
:10552000080307EE103AB8EE477A9FED646A67EE1B
:10553000867A77EE277AB7EE007A77EE877A66EE8C
:10554000A76A61E05B4B1B6813F0200F23D0594C16
:105550002168C1F3C1015A4BCB4007EE103AB8EEB7
:10556000477A06EE902AB8EE666AC7EE066A236BA3
:10557000C3F3080307EE103AB8EE477A9FED4F6A7F
:1055800067EE867A77EE277AB7EE007A77EE877A3B
:1055900066EEA76A38E007EE102AB8EE477A9FED6C
:1055A000496AC6EE076A434B1B6BC3F3080307EE59
:1055B000103AB8EE477A9FED416A67EE867A77EE49
:1055C000277AB7EE007A77EE877A66EEA76A1BE055
:1055D00007EE102AB8EE477A9FED376AC6EE076AE3
:1055E000344B1B6BC3F3080307EE103AB8EE477A4F
:1055F0009FED326A67EE867A77EE277AB7EE007A09
:1056000077EE877A66EEA76A2A4A136BC3F34623BE
:1056100007EE103AB8EE477AB7EE006A37EE067A30
:10562000C6EE877AFCEEE77AC0ED007A136BC3F31F
:10563000064307EE103AB8EE477A37EE067AC6EE22
:10564000877AFCEEE77AC0ED017A136BC3F3066349
:1056500007EE903AF8EE677A77EE867A86EEA77ACA
:10566000BCEEC77A80ED027A5DF8044B704707EE16
:10567000102AB8EE477A9FED146AC6EE076A0D4B02
:105680001B6BC3F3080307EE103AB8EE477A9FEDA1
:105690000B6A67EE867A77EE277AB7EE007A77EEB6
:1056A000877A66EEA76AAFE70023036043608360F2
:1056B000DAE700BF004402580024744A00000039B1
:1056C0000090D0030024744C0024F44B00B58BB040
:1056D000B0F5807F1BD0B0F5007F48D0B0F5806F6B
:1056E00078D0B0F5006F00F0AB80B0F5805F00F0CF
:1056F000DD80B0F5002F00F00F81B0F5803F00F0A5
:105700003181B0F5804F00F0458100200CE09E4BC8
:105710001B6D03F00703042B00F26481DFE803F044
:10572000070C1103160099480BB05DF804FB07A89D
:10573000FFF7CEFE0898F7E704A8FFF7CDFC049822
:10574000F2E701A8FFF7C6FD0198EDE78E4BDB6C91
:1057500013F0405300F04881B3F1805F00F04681C0
:10576000B3F1005F01D00020DEE78948DCE7864B1B
:105770001B6D03F4E073802B25D008D8F3B1402BC8
:1057800040F0368104A8FFF7A7FC0498CCE7C02BB3
:1057900012D0B3F5807F40F02B817B4BDB6C13F094
:1057A000405300F02781B3F1805F00F02581B3F111
:1057B000005F0DD00020B7E77448B5E707A8FFF7F2
:1057C00087FE0898B0E701A8FFF784FD0198ABE7D2
:1057D0006F48A9E76C4B9B6D03F46003B3F5800F32
:1057E00027D009D803B3B3F5001F40F0078104A800
:1057F000FFF772FC049897E7B3F5C00F12D0B3F52A
:10580000000F40F0FB80604BDB6C13F0405300F066
:10581000F780B3F1805F00F0F580B3F1005F0DD049
:10582000002081E759487FE707A8FFF751FE089855
:105830007AE701A8FFF74EFD019875E7544873E732
:10584000514B9B6D03F0E063B3F1007F27D009D883
:1058500003B3B3F1807F40F0D78004A8FFF73CFC8E
:10586000049861E7B3F1407F12D0B3F1806F40F04C
:10587000CB80454BDB6C13F0405300F0C780B3F195
:10588000805F00F0C580B3F1005F0DD000204BE7D2
:105890003E4849E707A8FFF71BFE089844E701A820
:1058A000FFF718FD01983FE739483DE7364B1B6D80
:1058B00003F4E043B3F5005F27D009D803B3B3F591
:1058C000805F40F0A78004A8FFF706FC04982BE750
:1058D000B3F5405F12D0B3F5804F40F09B802A4B68
:1058E000DB6C13F0405300F09780B3F1805F00F061
:1058F0009580B3F1005F0DD0002015E7234813E732
:1059000007A8FFF7E5FD08980EE701A8FFF7E2FCFE
:10591000019809E71E4807E71B4B9B6D03F44033D2
:10592000B3F5803F0AD0B3F5003F0CD00BB1002097
:10593000FAE604A8FFF7D0FB0498F5E601A8FFF704
:10594000C9FC0398F0E6104BDB6C13F0405367D0B2
:10595000B3F1805F66D0B3F1005F01D00020E3E6D1
:105960000B48E1E6084BDB6C13F4803302D033B90B
:105970000020D9E607A8FFF7ABFD0898D4E604A8F5
:10598000FFF7AAFB0698CFE6004402580080BB0050
:105990000048E801254B9B6D03F0E043B3F1005F45
:1059A00019D00AD9B3F1804F3ED0B3F1A04F17D030
:1059B000B3F1405F0AD00020B6E64BB1B3F1805F8F
:1059C000F9D104A8FFF788FB0598ADE61848ABE6C7
:1059D000FFF770FBA8E601A8FFF77CFC0298A3E69E
:1059E0001448A1E600209FE611489DE612489BE678
:1059F000002099E60E4897E60F4895E6002093E6CA
:105A00000B4891E60C488FE600208DE608488BE6AF
:105A1000094889E6002087E6054885E6064883E6CA
:105A2000034881E604487FE603487DE600440258C7
:105A30000090D0030048E80100093D0030B4002484
:105A40004464C4644568022D14BF00240124002D61
:105A500008BF0124C4B1002404654FF48034C46538
:105A60004FF6FF74446700248466036713F0010F48
:105A70004BD161B904664FF480244466032A3FD8B1
:105A8000DFE802F00B1E283301240465E5E74FF43C
:105A90000034046600244466F0E7802484645B08D4
:105AA0005C0144651B0183654023C3660023022912
:105AB0002CD1012A26D0022A28D10822826625E08C
:105AC000802484645B089D0145655B018365C46631
:105AD0000023ECE7C02484645B089C0144655B01FF
